{
  "contractName": "election",
  "abi": [
    {
      "inputs": [],
      "stateMutability": "nonpayable",
      "type": "constructor"
    },
    {
      "inputs": [
        {
          "internalType": "address",
          "name": "",
          "type": "address"
        }
      ],
      "name": "counter",
      "outputs": [
        {
          "internalType": "uint256",
          "name": "",
          "type": "uint256"
        }
      ],
      "stateMutability": "view",
      "type": "function",
      "constant": true
    },
    {
      "inputs": [],
      "name": "enddate",
      "outputs": [
        {
          "internalType": "uint256",
          "name": "",
          "type": "uint256"
        }
      ],
      "stateMutability": "view",
      "type": "function",
      "constant": true
    },
    {
      "inputs": [
        {
          "internalType": "bool",
          "name": "yourVote",
          "type": "bool"
        }
      ],
      "name": "vote",
      "outputs": [
        {
          "internalType": "bool",
          "name": "",
          "type": "bool"
        }
      ],
      "stateMutability": "payable",
      "type": "function",
      "payable": true
    },
    {
      "inputs": [],
      "name": "CurrentResult",
      "outputs": [
        {
          "internalType": "string",
          "name": "",
          "type": "string"
        }
      ],
      "stateMutability": "view",
      "type": "function",
      "constant": true
    },
    {
      "inputs": [],
      "name": "FinalResult",
      "outputs": [
        {
          "internalType": "string",
          "name": "",
          "type": "string"
        }
      ],
      "stateMutability": "view",
      "type": "function",
      "constant": true
    },
    {
      "inputs": [],
      "name": "tVoterCount",
      "outputs": [
        {
          "internalType": "uint256",
          "name": "",
          "type": "uint256"
        }
      ],
      "stateMutability": "view",
      "type": "function",
      "constant": true
    },
    {
      "inputs": [],
      "name": "fVoterCount",
      "outputs": [
        {
          "internalType": "uint256",
          "name": "",
          "type": "uint256"
        }
      ],
      "stateMutability": "view",
      "type": "function",
      "constant": true
    },
    {
      "inputs": [],
      "name": "tVoters",
      "outputs": [
        {
          "internalType": "address[]",
          "name": "",
          "type": "address[]"
        }
      ],
      "stateMutability": "view",
      "type": "function",
      "constant": true
    },
    {
      "inputs": [],
      "name": "fVoters",
      "outputs": [
        {
          "internalType": "address[]",
          "name": "",
          "type": "address[]"
        }
      ],
      "stateMutability": "view",
      "type": "function",
      "constant": true
    }
  ],
  "bytecode": "0x608060405261001b610056640100000000026401000000009004565b60065534801561002a57600080fd5b50635f926fe06007819055506000600860006101000a81548160ff021916908315150217905550610063565b600062278d004203905090565b610e68806100726000396000f3fe6080604052600436106100a3576000357c010000000000000000000000000000000000000000000000000000000090048063c12327b811610076578063c12327b81461027a578063c588953e146102df578063d99f4a321461030a578063f543bb2c14610335578063fe2125d8146103a1576100a3565b80632f7b041c146100a857806334a5462c146101145780634b9f5c98146101a457806380b10f5c146101ea575b600080fd5b3480156100b457600080fd5b506100bd6103cc565b6040518080602001828103825283818151815260200191508051906020019060200280838360005b838110156101005780820151818401526020810190506100e5565b505050509050019250505060405180910390f35b34801561012057600080fd5b5061012961045a565b6040518080602001828103825283818151815260200191508051906020019080838360005b8381101561016957808201518184015260208101905061014e565b50505050905090810190601f1680156101965780820380516001836020036101000a031916815260200191505b509250505060405180910390f35b6101d2600480360360208110156101ba57600080fd5b81019080803515159060200190929190505050610598565b60405180821515815260200191505060405180910390f35b3480156101f657600080fd5b506101ff610aff565b6040518080602001828103825283818151815260200191508051906020019080838360005b8381101561023f578082015181840152602081019050610224565b50505050905090810190601f16801561026c5780820380516001836020036101000a031916815260200191505b509250505060405180910390f35b34801561028657600080fd5b506102c96004803603602081101561029d57600080fd5b81019080803573ffffffffffffffffffffffffffffffffffffffff169060200190929190505050610be5565b6040518082815260200191505060405180910390f35b3480156102eb57600080fd5b506102f4610bfd565b6040518082815260200191505060405180910390f35b34801561031657600080fd5b5061031f610c03565b6040518082815260200191505060405180910390f35b34801561034157600080fd5b5061034a610c15565b6040518080602001828103825283818151815260200191508051906020019060200280838360005b8381101561038d578082015181840152602081019050610372565b505050509050019250505060405180910390f35b3480156103ad57600080fd5b506103b6610ca3565b6040518082815260200191505060405180910390f35b6060600380548060200260200160405190810160405280929190818152602001828054801561045057602002820191906000526020600020905b8160009054906101000a900473ffffffffffffffffffffffffffffffffffffffff1673ffffffffffffffffffffffffffffffffffffffff1681526020019060010190808311610406575b5050505050905090565b6060600754600654101561046d57600080fd5b6000610477610c03565b90506000610483610ca3565b9050808211156104cc576040518060400160405280600b81526020017f46494e414c2d542d574f4e00000000000000000000000000000000000000000081525092505050610595565b80821415610513576040518060400160405280600a81526020017f46494e414c2d544945440000000000000000000000000000000000000000000081525092505050610595565b8082101561055a576040518060400160405280600b81526020017f46494e414c2d462d574f4e00000000000000000000000000000000000000000081525092505050610595565b6040518060400160405280601281526020017f454e44444154452d4e4f54415252495645440000000000000000000000000000815250925050505b90565b6000808290506001600860006101000a81548160ff021916908315150217905580156105c8575060075460065411155b156108cf5760011515811515141561074d57600115156105e733610cb5565b15151480156106025750600115156105fe33610d4f565b1515145b1561060c57610748565b6000151561061933610cb5565b151514801561063457506001151561063033610d4f565b1515145b1561063e57610747565b6001151561064b33610cb5565b151514801561066657506001151561066233610d4f565b1515145b1561067057610746565b6000151561067d33610cb5565b151514801561069857506000151561069433610d4f565b1515145b15610745576002339080600181540180825580915050600190039060005260206000200160009091909190916101000a81548173ffffffffffffffffffffffffffffffffffffffff021916908373ffffffffffffffffffffffffffffffffffffffff16021790555060008190806001815401808255809150506001900390600052602060002090602091828204019190069091909190916101000a81548160ff0219169083151502179055505b5b5b5b6108ca565b6000151581151514156108c9576001151561076733610cb5565b151514801561078257506000151561077e33610d4f565b1515145b1561078c576108c8565b6000151561079933610cb5565b15151480156107b45750600115156107b033610d4f565b1515145b156107be576108c7565b600115156107cb33610cb5565b15151480156107e65750600115156107e233610d4f565b1515145b156107f0576108c6565b600015156107fd33610cb5565b151514801561081857506000151561081433610d4f565b1515145b156108c5576003339080600181540180825580915050600190039060005260206000200160009091909190916101000a81548173ffffffffffffffffffffffffffffffffffffffff021916908373ffffffffffffffffffffffffffffffffffffffff16021790555060018190806001815401808255809150506001900390600052602060002090602091828204019190069091909190916101000a81548160ff0219169083151502179055505b5b5b5b5b5b610af9565b60006108da33610de9565b905060075460065411156108ed57600080fd5b600181106108fa57600080fd5b600115158215151415610a015760008290806001815401808255809150506001900390600052602060002090602091828204019190069091909190916101000a81548160ff0219169083151502179055506002339080600181540180825580915050600190039060005260206000200160009091909190916101000a81548173ffffffffffffffffffffffffffffffffffffffff021916908373ffffffffffffffffffffffffffffffffffffffff1602179055506002600560003373ffffffffffffffffffffffffffffffffffffffff1673ffffffffffffffffffffffffffffffffffffffff16815260200190815260200160002060008282540192505081905550610af7565b60018290806001815401808255809150506001900390600052602060002090602091828204019190069091909190916101000a81548160ff0219169083151502179055506003339080600181540180825580915050600190039060005260206000200160009091909190916101000a81548173ffffffffffffffffffffffffffffffffffffffff021916908373ffffffffffffffffffffffffffffffffffffffff1602179055506002600560003373ffffffffffffffffffffffffffffffffffffffff1673ffffffffffffffffffffffffffffffffffffffff168152602001908152602001600020600082825401925050819055505b505b50919050565b60606000610b0b610c03565b90506000610b17610ca3565b905080821115610b60576040518060400160405280600581526020017f542d574f4e00000000000000000000000000000000000000000000000000000081525092505050610be2565b80821415610ba7576040518060400160405280600381526020017f544945000000000000000000000000000000000000000000000000000000000081525092505050610be2565b6040518060400160405280600581526020017f462d574f4e000000000000000000000000000000000000000000000000000000815250925050505b90565b60056020528060005260406000206000915090505481565b60075481565b60008060028054905090508091505090565b60606002805480602002602001604051908101604052809291908181526020018280548015610c9957602002820191906000526020600020905b8160009054906101000a900473ffffffffffffffffffffffffffffffffffffffff1673ffffffffffffffffffffffffffffffffffffffff1681526020019060010190808311610c4f575b5050505050905090565b60008060038054905090508091505090565b60008060009050600380549050811015610d48578273ffffffffffffffffffffffffffffffffffffffff1660038281548110610ced57fe5b9060005260206000200160009054906101000a900473ffffffffffffffffffffffffffffffffffffffff1673ffffffffffffffffffffffffffffffffffffffff161415610d3e576001915050610d4a565b6000915050610d4a565b505b919050565b60008060009050600280549050811015610de2578273ffffffffffffffffffffffffffffffffffffffff1660028281548110610d8757fe5b9060005260206000200160009054906101000a900473ffffffffffffffffffffffffffffffffffffffff1673ffffffffffffffffffffffffffffffffffffffff161415610dd8576001915050610de4565b6000915050610de4565b505b919050565b6000600560008373ffffffffffffffffffffffffffffffffffffffff1673ffffffffffffffffffffffffffffffffffffffff16815260200190815260200160002054905091905056fea26469706673582212204b6bba6cdf71439922f97d5e2e604103a316d36158cdf8e2dfa458fc0686a09464736f6c634300060c0033",
  "immutableReferences": {},
  "source": "// SPDX-License-Identifier: SEE LICENSE IN LICENSE\npragma solidity ^0.6.12;\n\ncontract election {\n\n    bool[] castedVoteT;\n    bool[] castedVoteF;\n    address[] voterT;\n    address[] voterF;\n    uint256 pointer;\n    \n      \n    mapping (address => uint256) public counter;\n    \n    uint256 ctime = getTime();\n  \n    uint256 public enddate;\n    bool temp;\n//    constructor(uint256 _resultDate, bool _enableVOTEChange) public {\n//        enddate = _resultDate;\n//        temp = _enableVOTEChange;\n//\n//   }    \n\n    constructor() public {\n         enddate = 1603432416;\n\t temp = false;\n    }\n\n    function vote(bool yourVote) public payable returns(bool){\n        bool _yourVote = yourVote;\n        if((temp=true)&&(ctime<=enddate)){\n            if(_yourVote==true){\n                if((_checkCastedF(msg.sender)==true)&&_checkCastedT(msg.sender)==true) {\n                    //\n                } else if ((_checkCastedF(msg.sender)==false)&&(_checkCastedT(msg.sender)==true)) {\n                    //\n                } else if ((_checkCastedF(msg.sender)==true)&&(_checkCastedT(msg.sender)==true)) {\n                    //\n                } else if ((_checkCastedF(msg.sender)==false)&&(_checkCastedT(msg.sender)==false)){\n                    voterT.push(msg.sender);\n                    castedVoteT.push(_yourVote);\n                }\n            } else if (_yourVote==false) {\n                if((_checkCastedF(msg.sender)==true)&&(_checkCastedT(msg.sender)==false)) {\n                  //\n                } else if ((_checkCastedF(msg.sender)==false)&&(_checkCastedT(msg.sender)==true)) {\n                    //\n                } else if ((_checkCastedF(msg.sender)==true)&&(_checkCastedT(msg.sender)==true)) {\n                    //\n                } else if ((_checkCastedF(msg.sender)==false)&&(_checkCastedT(msg.sender)==false)){\n                    voterF.push(msg.sender);\n                    castedVoteF.push(_yourVote);\n                }          \n            }\n        } else {\n            uint256 currentCount = findCount(msg.sender);\n            require(ctime<=enddate);\n            require(currentCount<1);\n            if(_yourVote==true){\n                castedVoteT.push(_yourVote);\n                voterT.push(msg.sender);\n                counter[msg.sender] += 2;                \n            } else {\n                castedVoteF.push(_yourVote);\n                voterF.push(msg.sender);\n                counter[msg.sender] += 2;                \n            }\n        }\n    }\n    \n\n    function getTime () internal view returns(uint256 time){\n        return block.timestamp - 30 days;\n    }\n    \n    function findCount (address _uaddr) internal view returns(uint256){\n        return counter[_uaddr];\n    }\n    \n\n    function CurrentResult() public view returns (string memory) {\n        uint256 tz = tVoterCount();\n        uint256 fz = fVoterCount();\n        if(tz>fz){\n            return \"T-WON\";\n        }else if(tz==fz){\n            return \"TIE\";\n        }else{\n            return \"F-WON\";\n        }\n    }\n    \n    function FinalResult() public view returns (string memory) {\n        require(ctime>=enddate);\n        uint256 ty = tVoterCount();\n        uint256 fy = fVoterCount();\n        if(ty>fy){\n            return \"FINAL-T-WON\";\n        }else if(ty==fy){\n            return \"FINAL-TIED\";\n        }else if(ty<fy) {\n            return \"FINAL-F-WON\";\n        }else{\n            return \"ENDDATE-NOTARRIVED\";\n        }\n    }\n    \n    \n        \n    function _checkCastedF(address _addr) internal view returns(bool) {\n        for(uint i=0;i<voterF.length;i++){\n            if(voterF[i]==_addr){\n                return true;  \n            } else {\n                return false;\n            }\n        }\n    }\n    \n    \n    function _checkCastedT(address _addr) internal view returns(bool) {\n        for(uint j=0;j<voterT.length;j++){\n            if(voterT[j]==_addr){\n                return true;  \n            } else {\n                return false;\n            }\n        }\n    }\n    \n        \n    \n    function tVoterCount() public view returns (uint256){\n        uint256 t = voterT.length;\n        return t;\n    }\n    \n    \n    function fVoterCount() public view returns (uint256){\n        uint256 f = voterF.length;\n        return f;\n    }\n    \n\n    function tVoters() public view returns (address  [] memory){\n        return voterT;\n    }\n    \n    function fVoters() public view returns (address  [] memory){\n        return voterF;\n    }\n}\n",
  "sourcePath": "C:/Users/bala/Documents/invest/contracts/election.sol",
  "compiler": {
    "name": "solc",
    "version": "0.6.12+commit.27d51765.Emscripten.clang"
  },
  "schemaVersion": "3.2.3",
  "updatedAt": "2020-10-23T06:09:58.193Z",
  "networkType": "ethereum",
  "devdoc": {
    "kind": "dev",
    "methods": {},
    "version": 1
  },
  "userdoc": {
    "kind": "user",
    "methods": {},
    "version": 1
  }
}